:020000040000FA
:100000000C9462000C948A000C948A000C948A0070
:100010000C948A000C948A000C948A000C948A0038
:100020000C948A000C948A000C948A000C948A0028
:100030000C948A000C942A030C948A000C948A0075
:100040000C9488020C948A000C94F8020C94D2024E
:100050000C948A000C948A000C948A000C948A00F8
:100060000C948A000C948A000000000025002800EF
:100070002B0000000000240027002A0000000000E0
:1000800023002600290004040404040404040202DA
:100090000202020203030303030301020408102007
:1000A0004080010204081020010204081020000012
:1000B0000008000201000003040700000000000027
:1000C0000000510311241FBECFEFD8E0DEBFCDBF2B
:1000D00011E0A0E0B1E0EAEFFAE002C005900D9275
:1000E000A632B107D9F721E0A6E2B1E001C01D9226
:1000F000A43EB207E1F710E0C2E6D0E004C02197C9
:10010000FE010E947505C136D107C9F70E949E0302
:100110000C947B050C94000090E0FC01E255FF4F2D
:100120002491FC01E656FF4F3491FC01EA57FF4F42
:10013000E491EE23C1F1222339F02330E9F090F469
:10014000213001F1223011F1F0E0EE0FFF1FE458F1
:10015000FF4FA591B491EC91E32381E090E029F564
:1001600080E008952730A9F02830C9F0243061F7E5
:10017000809180008F7D03C0809180008F77809375
:100180008000E2CF84B58F7784BDDECF84B58F7DCC
:10019000FBCF8091B0008F778093B000D5CF809156
:1001A000B0008F7DF9CF80E090E00895CF938091EB
:1001B000DA010E948C002091DC01C2E028171906A8
:1001C00009F0C0E08091DB010E948C002091DC01ED
:1001D0002817190609F4C1608C2FCF910895CF9389
:1001E000DF9390E0FC01E656FF4F24918A579F4F22
:1001F000FC0184918823C9F090E0880F991FFC01CD
:10020000EE58FF4FA591B491FC01E859FF4FC591FD
:10021000D49161110DC09FB7F8948C9120958223E1
:100220008C938881282328839FBFDF91CF910895E5
:10023000623051F49FB7F8943C91822F80958323CC
:100240008C93E8812E2BEFCF8FB7F894EC912E2B67
:100250002C938FBFEACFAF92BF92CF92DF92EF92F3
:10026000FF920F931F93CF93DF936C017B018B0160
:10027000040F151FEB015E01AE18BF08C017D107B0
:1002800059F06991D601ED91FC910190F081E02D3A
:10029000C6010995892B79F7C501DF91CF911F918F
:1002A0000F91FF90EF90DF90CF90BF90AF900895A7
:1002B000FC01538D448D252F30E0842F90E0821B6C
:1002C000930B541710F0CF96089501970895FC01F1
:1002D000918D828D981761F0A28DAE0FBF2FB11D49
:1002E0005D968C91928D9F5F9F73928F90E00895A1
:1002F0008FEF9FEF0895FC01918D828D981731F05B
:10030000828DE80FF11D858D90E008958FEF9FEFAE
:100310000895FC01918D228D892F90E0805C9F4F84
:10032000821B91098F73992708958DE391E00E94B4
:10033000890121E0892B09F420E0822F089580E0D3
:1003400090E0892B29F00E94950181110C94000006
:100350000895FC01A48DA80FB92FB11DA35ABF4F5A
:100360002C91848D90E001968F739927848FA689B4
:10037000B7892C93A089B1898C91837080648C9308
:10038000938D848D981306C00288F389E02D8081B7
:100390008F7D80830895EF92FF920F931F93CF93E9
:1003A000DF93EC0181E0888F9B8D8C8D98131AC0B0
:1003B000E889F989808185FF15C09FB7F894EE8997
:1003C000FF896083E889F9898081837080648083F4
:1003D0009FBF81E090E0DF91CF911F910F91FF903F
:1003E000EF900895F62E0B8D10E00F5F1F4F0F73E7
:1003F0001127E02E8C8D8E110CC00FB607FCFACFA2
:10040000E889F989808185FFF5CFCE010E94A90195
:10041000F1CFEB8DEC0FFD2FF11DE35AFF4FF08272
:100420009FB7F8940B8FEA89FB8980818062CFCFD8
:10043000CF93DF93EC01888D8823B9F0AA89BB891B
:10044000E889F9898C9185FD03C0808186FD0DC006
:100450000FB607FCF7CF8C9185FFF2CF808185FF27
:10046000EDCFCE010E94A901E9CFDF91CF91089590
:1004700008950E94D600982F959589279091E101C3
:10048000981B90FF20C08093E101892F8270082E75
:10049000000C990B2091DE01211116C001972091CB
:1004A000DF013091E001280F391F3093E0012093E4
:1004B000DF012091E2013091E301820F931F9093BD
:1004C000E3018093E201089521E030E0A901481B97
:1004D000590BCA01E4CFCF93DF93FC0101900020B8
:1004E000E9F73197AF01481B590BBC018DE391E04F
:1004F0000E942B01EC0142E050E064E171E08DE3E9
:1005000091E00E942B018C0F9D1FDF91CF910895E8
:100510001F920F920FB60F9211242F933F938F9338
:100520009F93AF93BF938091390190913A01A0912D
:100530003B01B0913C013091380123E0230F2D376E
:1005400058F50196A11DB11D209338018093390102
:1005500090933A01A0933B01B0933C018091340108
:1005600090913501A0913601B09137010196A11DFE
:10057000B11D8093340190933501A0933601B0935F
:100580003701BF91AF919F918F913F912F910F9024
:100590000FBE0F901F90189526E8230F0296A11DFD
:1005A000B11DD2CF1F920F920FB60F9211242F932D
:1005B0003F934F935F936F937F938F939F93AF93EB
:1005C000BF93EF93FF938DE391E00E94A901FF9108
:1005D000EF91BF91AF919F918F917F916F915F91BB
:1005E0004F913F912F910F900FBE0F901F90189534
:1005F0001F920F920FB60F9211242F938F939F93F8
:10060000EF93FF93E0914D01F0914E018081E091D5
:100610005301F091540182FD1BC0908180915601DD
:100620008F5F8F7320915701821741F0E09156013F
:10063000F0E0E35CFE4F958F80935601FF91EF91C0
:100640009F918F912F910F900FBE0F901F90189533
:100650008081F4CF1F920F920FB60F9211242F9327
:100660003F934F935F936F937F938F939F93AF933A
:10067000BF93EF93FF93E0910001F0910101099581
:10068000FF91EF91BF91AF919F918F917F916F916A
:100690005F914F913F912F910F900FBE0F901F9040
:1006A0001895CF93DF93EDE3F1E01382128288EE89
:1006B00093E0A0E0B0E084839583A683B78386E0CF
:1006C00091E09183808385EC90E09587848784EC2A
:1006D00090E09787868780EC90E0918B808B81EC0F
:1006E00090E0938B828B82EC90E0958B848B86ECF0
:1006F00090E0978B868B118E128E138E148ECAED1E
:10070000D1E082E0888383E089831A8284E08B834E
:100710001C821E821D821F821986188662E082E07A
:100720000E94EF0062E083E00E94EF000E94D6008A
:100730008F831E821D82DF91CF910895789484B5B6
:10074000826084BD84B5816084BD85B5826085BDCD
:1007500085B5816085BD80916E00816080936E005B
:10076000109281008091810082608093810080914D
:1007700081008160809381008091800081608093FE
:1007800080008091B10084608093B1008091B000BE
:1007900081608093B00080917A00846080937A00B9
:1007A00080917A00826080937A0080917A008160E3
:1007B00080937A0080917A00806880937A0010920A
:1007C000C100E0914D01F0914E0182E08083E09103
:1007D0004901F0914A011082E0914B01F0914C01E6
:1007E0008FEC808310925501E0915101F0915201FC
:1007F00086E08083E0914F01F0915001808180611B
:100800008083E0914F01F091500180818860808366
:10081000E0914F01F0915001808180688083E091E8
:100820004F01F091500180818F7D808380E1809322
:1008300081001092800080E49FE190938700809374
:10084000860081E18093810089E392E09093010129
:100850008093000181E080936F0060E084E00E945B
:10086000EF0060E085E00E94EF0060E086E00E941B
:10087000EF0060E087E00E94EF0060E089E00E9406
:10088000EF002FB7F8948091390190913A01A0912F
:100890003B01B0913C012FBF809330019093310117
:1008A000A0933201B093330182E0682E712C94E062
:1008B000892E912C20E0422E20E0522E2FB7F89462
:1008C0008091390190913A01A0913B01B0913C0196
:1008D0002FBF4091300150913101609132017091F0
:1008E0003301841B950BA60BB70B4497A105B105EB
:1008F00008F4ADC02FB7F8948091390190913A0176
:10090000A0913B01B0913C012FBF809330019093A7
:100910003101A0933201B093330184E00E948C0036
:100920006C0185E00E948C007C0186E00E948C00B6
:100930008C0187E00E948C00EC0189E00E948C0011
:100940005C014FB7F8942091DF013091E001822FD4
:100950009091DD01923009F486C0943009F095C081
:100960008091DF019091E001B4010E944D059093C8
:10097000E0018093DF01822F27FF02C083E0820F16
:10098000859585954FBF082E000C990B009731F087
:100990000CF480C087E191E00E946B0280912E01EF
:1009A00090912F01C816D90641F081E0C816D104F4
:1009B00021F48BE191E00E946B0280912C019091D7
:1009C0002D010817190739F00130110521F48DE1C7
:1009D00091E00E946B0280912A0190912B01E81610
:1009E000F90641F081E0E816F10421F48FE191E08D
:1009F0000E946B028091280190912901C817D907A4
:100A000039F0C130D10521F481E291E00E946B02FE
:100A10008091260190912701A816B90621F083E262
:100A200091E00E946B02D0922F01C0922E01F092B1
:100A30002B01E0922A0110932D0100932C01D093F9
:100A40002901C0932801B0922701A09226014114E8
:100A5000510409F433CF0E949501882309F42ECF65
:100A60000E9400002BCF8091DF019091E001B30143
:100A70000E944D059093E0018093DF01822F27FFB4
:100A800002C081E0820F85957DCF1092E001109227
:100A9000DF0178CF89E191E07FCF97FB072E16F435
:100AA000009407D077FD09D00E94610507FC05D0AE
:100AB0003EF4909581959F4F0895709561957F4F75
:100AC0000895AA1BBB1B51E107C0AA1FBB1FA61795
:100AD000B70710F0A61BB70B881F991F5A95A9F7E7
:100AE00080959095BC01CD010895EE0FFF1F0590F4
:100AF000F491E02D0994F894FFCF38020000000033
:100B0000CB012B0158011802890167017B010D0AF5
:100B1000004C005200420050005A004F00490000B3
:107E0000112484B714BE81FFF0D085E080938100F7
:107E100082E08093C00088E18093C10086E0809377
:107E2000C20080E18093C4008EE0C9D0259A86E02C
:107E300020E33CEF91E0309385002093840096BBD3
:107E4000B09BFECF1D9AA8958150A9F7CC24DD24C4
:107E500088248394B5E0AB2EA1E19A2EF3E0BF2EE7
:107E6000A2D0813461F49FD0082FAFD0023811F036
:107E7000013811F484E001C083E08DD089C08234E0
:107E800011F484E103C0853419F485E0A6D080C0E4
:107E9000853579F488D0E82EFF2485D0082F10E0AE
:107EA000102F00270E291F29000F111F8ED06801E7
:107EB0006FC0863521F484E090D080E0DECF843638
:107EC00009F040C070D06FD0082F6DD080E0C81688
:107ED00080E7D80618F4F601B7BEE895C0E0D1E017
:107EE00062D089930C17E1F7F0E0CF16F0E7DF06D8
:107EF00018F0F601B7BEE89568D007B600FCFDCFD4
:107F0000A601A0E0B1E02C9130E011968C91119780
:107F100090E0982F8827822B932B1296FA010C0160
:107F200087BEE89511244E5F5F4FF1E0A038BF0790
:107F300051F7F601A7BEE89507B600FCFDCF97BE46
:107F4000E89526C08437B1F42ED02DD0F82E2BD052
:107F50003CD0F601EF2C8F010F5F1F4F84911BD097
:107F6000EA94F801C1F70894C11CD11CFA94CF0C13
:107F7000D11C0EC0853739F428D08EE10CD085E9AC
:107F80000AD08FE07ACF813511F488E018D01DD067
:107F900080E101D065CF982F8091C00085FFFCCF94
:107FA0009093C60008958091C00087FFFCCF809118
:107FB000C00084FD01C0A8958091C6000895E0E648
:107FC000F0E098E1908380830895EDDF803219F02E
:107FD00088E0F5DFFFCF84E1DECF1F93182FE3DFCA
:107FE0001150E9F7F2DF1F91089580E0E8DFEE27F6
:047FF000FF270994CA
:027FFE00040479
:00000001FF
